{
  "address": "0xcF5C3708Bc9DC8410088d037d0888840BDb67379",
  "abi": [
    {
      "inputs": [
        {
          "internalType": "address",
          "name": "priceFeed",
          "type": "address"
        }
      ],
      "stateMutability": "nonpayable",
      "type": "constructor"
    },
    {
      "inputs": [],
      "name": "NotOwner",
      "type": "error"
    },
    {
      "stateMutability": "payable",
      "type": "fallback"
    },
    {
      "inputs": [],
      "name": "MINIMUM_USD",
      "outputs": [
        {
          "internalType": "uint256",
          "name": "",
          "type": "uint256"
        }
      ],
      "stateMutability": "view",
      "type": "function"
    },
    {
      "inputs": [
        {
          "internalType": "address",
          "name": "",
          "type": "address"
        }
      ],
      "name": "addressMappingFoundAmount",
      "outputs": [
        {
          "internalType": "uint256",
          "name": "",
          "type": "uint256"
        }
      ],
      "stateMutability": "view",
      "type": "function"
    },
    {
      "inputs": [],
      "name": "fundMe",
      "outputs": [],
      "stateMutability": "payable",
      "type": "function"
    },
    {
      "inputs": [],
      "name": "i_owner",
      "outputs": [
        {
          "internalType": "address",
          "name": "",
          "type": "address"
        }
      ],
      "stateMutability": "view",
      "type": "function"
    },
    {
      "inputs": [
        {
          "internalType": "uint256",
          "name": "",
          "type": "uint256"
        }
      ],
      "name": "s_funders",
      "outputs": [
        {
          "internalType": "address",
          "name": "",
          "type": "address"
        }
      ],
      "stateMutability": "view",
      "type": "function"
    },
    {
      "inputs": [],
      "name": "withdraw",
      "outputs": [],
      "stateMutability": "nonpayable",
      "type": "function"
    },
    {
      "stateMutability": "payable",
      "type": "receive"
    }
  ],
  "transactionHash": "0x594c2964bd9ffaf38c6218d2334db4adb8804c0a4b9c2c1083fc63d9baa3581b",
  "args": [
    "0x694AA1769357215DE4FAC081bf1f309aDC325306"
  ],
  "numDeployments": 1,
  "solcInputHash": "4b93ee5b49af158e902bcba59f04ea77",
  "bytecode": "0x608060405234801561001057600080fd5b5060405162000fd838038062000fd8833981810160405281019061003491906100d1565b33600260006101000a81548173ffffffffffffffffffffffffffffffffffffffff021916908373ffffffffffffffffffffffffffffffffffffffff16021790555080600360006101000a81548173ffffffffffffffffffffffffffffffffffffffff021916908373ffffffffffffffffffffffffffffffffffffffff1602179055505061014c565b6000815190506100cb81610135565b92915050565b6000602082840312156100e7576100e6610130565b5b60006100f5848285016100bc565b91505092915050565b600061010982610110565b9050919050565b600073ffffffffffffffffffffffffffffffffffffffff82169050919050565b600080fd5b61013e816100fe565b811461014957600080fd5b50565b610e7c806200015c6000396000f3fe6080604052600436106100595760003560e01c80633ccfd60b1461007257806354861af7146100895780636b69a592146100c6578063b6a324e0146100f1578063da6fade4146100fb578063dba6335f1461013857610068565b3661006857610066610163565b005b610070610163565b005b34801561007e57600080fd5b5061008761029d565b005b34801561009557600080fd5b506100b060048036038101906100ab91906107f5565b610569565b6040516100bd919061095c565b60405180910390f35b3480156100d257600080fd5b506100db6105a8565b6040516100e891906109d7565b60405180910390f35b6100f9610163565b005b34801561010757600080fd5b50610122600480360381019061011d91906107c8565b6105b5565b60405161012f91906109d7565b60405180910390f35b34801561014457600080fd5b5061014d6105cd565b60405161015a919061095c565b60405180910390f35b6802b5e3af16b18800006101a2600360009054906101000a900473ffffffffffffffffffffffffffffffffffffffff16346105f390919063ffffffff16565b10156101e3576040517f08c379a00000000000000000000000000000000000000000000000000000000081526004016101da906109b7565b60405180910390fd5b346000803373ffffffffffffffffffffffffffffffffffffffff1673ffffffffffffffffffffffffffffffffffffffff16815260200190815260200160002060008282546102319190610a0e565b925050819055506001339080600181540180825580915050600190039060005260206000200160009091909190916101000a81548173ffffffffffffffffffffffffffffffffffffffff021916908373ffffffffffffffffffffffffffffffffffffffff160217905550565b600260009054906101000a900473ffffffffffffffffffffffffffffffffffffffff1673ffffffffffffffffffffffffffffffffffffffff163373ffffffffffffffffffffffffffffffffffffffff161461032d576040517f08c379a000000000000000000000000000000000000000000000000000000000815260040161032490610997565b60405180910390fd5b600260009054906101000a900473ffffffffffffffffffffffffffffffffffffffff1673ffffffffffffffffffffffffffffffffffffffff163373ffffffffffffffffffffffffffffffffffffffff16146103b4576040517f30cd747100000000000000000000000000000000000000000000000000000000815260040160405180910390fd5b60005b600180549050811015610459576000806000600184815481106103dd576103dc610d09565b5b9060005260206000200160009054906101000a900473ffffffffffffffffffffffffffffffffffffffff1673ffffffffffffffffffffffffffffffffffffffff1673ffffffffffffffffffffffffffffffffffffffff16815260200190815260200160002081905550808061045190610c62565b9150506103b7565b50600067ffffffffffffffff81111561047557610474610d38565b5b6040519080825280602002602001820160405280156104a35781602001602082028036833780820191505090505b50600190805190602001906104b99291906106b8565b5060003373ffffffffffffffffffffffffffffffffffffffff16476040516104e090610947565b60006040518083038185875af1925050503d806000811461051d576040519150601f19603f3d011682016040523d82523d6000602084013e610522565b606091505b5050905080610566576040517f08c379a000000000000000000000000000000000000000000000000000000000815260040161055d90610977565b60405180910390fd5b50565b6001818154811061057957600080fd5b906000526020600020016000915054906101000a900473ffffffffffffffffffffffffffffffffffffffff1681565b6802b5e3af16b188000081565b60006020528060005260406000206000915090505481565b600260009054906101000a900473ffffffffffffffffffffffffffffffffffffffff1681565b6000808273ffffffffffffffffffffffffffffffffffffffff1663feaf968c6040518163ffffffff1660e01b815260040160a06040518083038186803b15801561063c57600080fd5b505afa158015610650573d6000803e3d6000fd5b505050506040513d601f19601f820116820180604052508101906106749190610822565b50505091505060006402540be4008261068d9190610a95565b9050670de0b6b3a764000085826106a49190610bac565b6106ae9190610a64565b9250505092915050565b828054828255906000526020600020908101928215610731579160200282015b828111156107305782518260006101000a81548173ffffffffffffffffffffffffffffffffffffffff021916908373ffffffffffffffffffffffffffffffffffffffff160217905550916020019190600101906106d8565b5b50905061073e9190610742565b5090565b5b8082111561075b576000816000905550600101610743565b5090565b60008135905061076e81610dea565b92915050565b60008151905061078381610e01565b92915050565b60008135905061079881610e18565b92915050565b6000815190506107ad81610e18565b92915050565b6000815190506107c281610e2f565b92915050565b6000602082840312156107de576107dd610d67565b5b60006107ec8482850161075f565b91505092915050565b60006020828403121561080b5761080a610d67565b5b600061081984828501610789565b91505092915050565b600080600080600060a0868803121561083e5761083d610d67565b5b600061084c888289016107b3565b955050602061085d88828901610774565b945050604061086e8882890161079e565b935050606061087f8882890161079e565b9250506080610890888289016107b3565b9150509295509295909350565b6108a681610c06565b82525050565b60006108b9600b836109fd565b91506108c482610d6c565b602082019050919050565b60006108dc601e836109fd565b91506108e782610d95565b602082019050919050565b60006108ff6000836109f2565b915061090a82610dbe565b600082019050919050565b60006109226013836109fd565b915061092d82610dc1565b602082019050919050565b61094181610c42565b82525050565b6000610952826108f2565b9150819050919050565b6000602082019050610971600083018461089d565b92915050565b60006020820190508181036000830152610990816108ac565b9050919050565b600060208201905081810360008301526109b0816108cf565b9050919050565b600060208201905081810360008301526109d081610915565b9050919050565b60006020820190506109ec6000830184610938565b92915050565b600081905092915050565b600082825260208201905092915050565b6000610a1982610c42565b9150610a2483610c42565b9250827fffffffffffffffffffffffffffffffffffffffffffffffffffffffffffffffff03821115610a5957610a58610cab565b5b828201905092915050565b6000610a6f82610c42565b9150610a7a83610c42565b925082610a8a57610a89610cda565b5b828204905092915050565b6000610aa082610c18565b9150610aab83610c18565b9250827f7fffffffffffffffffffffffffffffffffffffffffffffffffffffffffffffff0482116000841360008413161615610aea57610ae9610cab565b5b817f80000000000000000000000000000000000000000000000000000000000000000583126000841260008413161615610b2757610b26610cab565b5b827f80000000000000000000000000000000000000000000000000000000000000000582126000841360008412161615610b6457610b63610cab565b5b827f7fffffffffffffffffffffffffffffffffffffffffffffffffffffffffffffff0582126000841260008412161615610ba157610ba0610cab565b5b828202905092915050565b6000610bb782610c42565b9150610bc283610c42565b9250817fffffffffffffffffffffffffffffffffffffffffffffffffffffffffffffffff0483118215151615610bfb57610bfa610cab565b5b828202905092915050565b6000610c1182610c22565b9050919050565b6000819050919050565b600073ffffffffffffffffffffffffffffffffffffffff82169050919050565b6000819050919050565b600069ffffffffffffffffffff82169050919050565b6000610c6d82610c42565b91507fffffffffffffffffffffffffffffffffffffffffffffffffffffffffffffffff821415610ca057610c9f610cab565b5b600182019050919050565b7f4e487b7100000000000000000000000000000000000000000000000000000000600052601160045260246000fd5b7f4e487b7100000000000000000000000000000000000000000000000000000000600052601260045260246000fd5b7f4e487b7100000000000000000000000000000000000000000000000000000000600052603260045260246000fd5b7f4e487b7100000000000000000000000000000000000000000000000000000000600052604160045260246000fd5b600080fd5b7f43616c6c206661696c6564000000000000000000000000000000000000000000600082015250565b7f4f6e6c7920746865206f776e657220636f756c64207769746864726177210000600082015250565b50565b7f4469646e27742073656e6420656e6f7567682100000000000000000000000000600082015250565b610df381610c06565b8114610dfe57600080fd5b50565b610e0a81610c18565b8114610e1557600080fd5b50565b610e2181610c42565b8114610e2c57600080fd5b50565b610e3881610c4c565b8114610e4357600080fd5b5056fea26469706673582212206d6322bb63fcf47d2b771349b7f36d41f2339973c27a9e3d1201a090cd95bb6864736f6c63430008070033",
  "devdoc": {
    "kind": "dev",
    "methods": {},
    "version": 1
  },
  "userdoc": {
    "kind": "user",
    "methods": {},
    "version": 1
  },
  "storageLayout": {
    "storage": [
      {
        "astId": 62,
        "contract": "contracts/FundMe.sol:FundMe",
        "label": "addressMappingFoundAmount",
        "offset": 0,
        "slot": "0",
        "type": "t_mapping(t_address,t_uint256)"
      },
      {
        "astId": 65,
        "contract": "contracts/FundMe.sol:FundMe",
        "label": "s_funders",
        "offset": 0,
        "slot": "1",
        "type": "t_array(t_address)dyn_storage"
      },
      {
        "astId": 67,
        "contract": "contracts/FundMe.sol:FundMe",
        "label": "i_owner",
        "offset": 0,
        "slot": "2",
        "type": "t_address"
      },
      {
        "astId": 70,
        "contract": "contracts/FundMe.sol:FundMe",
        "label": "s_aggreagtor",
        "offset": 0,
        "slot": "3",
        "type": "t_contract(AggregatorV3Interface)45"
      }
    ],
    "types": {
      "t_address": {
        "encoding": "inplace",
        "label": "address",
        "numberOfBytes": "20"
      },
      "t_array(t_address)dyn_storage": {
        "base": "t_address",
        "encoding": "dynamic_array",
        "label": "address[]",
        "numberOfBytes": "32"
      },
      "t_contract(AggregatorV3Interface)45": {
        "encoding": "inplace",
        "label": "contract AggregatorV3Interface",
        "numberOfBytes": "20"
      },
      "t_mapping(t_address,t_uint256)": {
        "encoding": "mapping",
        "key": "t_address",
        "label": "mapping(address => uint256)",
        "numberOfBytes": "32",
        "value": "t_uint256"
      },
      "t_uint256": {
        "encoding": "inplace",
        "label": "uint256",
        "numberOfBytes": "32"
      }
    }
  }
}